{
  "_format": "hh-sol-artifact-1",
  "contractName": "GmtCashSgDemo",
  "sourceName": "contracts/GmtCashSgDemo.sol",
  "abi": [
    {
      "anonymous": false,
      "inputs": [
        {
          "indexed": false,
          "internalType": "string",
          "name": "name",
          "type": "string"
        },
        {
          "indexed": false,
          "internalType": "uint256",
          "name": "totalMembers",
          "type": "uint256"
        }
      ],
      "name": "MemberAdded",
      "type": "event"
    },
    {
      "inputs": [
        {
          "internalType": "string",
          "name": "_name",
          "type": "string"
        }
      ],
      "name": "addMember",
      "outputs": [],
      "stateMutability": "nonpayable",
      "type": "function"
    },
    {
      "inputs": [],
      "name": "getNamesCount",
      "outputs": [
        {
          "internalType": "uint256",
          "name": "",
          "type": "uint256"
        }
      ],
      "stateMutability": "view",
      "type": "function"
    },
    {
      "inputs": [],
      "name": "selectPersonToTreatDinner",
      "outputs": [
        {
          "internalType": "string",
          "name": "",
          "type": "string"
        }
      ],
      "stateMutability": "view",
      "type": "function"
    }
  ],
  "bytecode": "0x608060405234801561001057600080fd5b50610a09806100206000396000f3fe608060405234801561001057600080fd5b50600436106100415760003560e01c8063918f968714610046578063aabe984d14610062578063ae66117514610080575b600080fd5b610060600480360381019061005b91906103f3565b61009e565b005b61006a610158565b6040516100779190610455565b60405180910390f35b610088610164565b60405161009591906104ef565b60405180910390f35b60008151116100e2576040517f08c379a00000000000000000000000000000000000000000000000000000000081526004016100d99061055d565b60405180910390fd5b6000819080600181540180825580915050600190039060005260206000200160009091909190915090816101169190610789565b507f83e69b55d72d24df9d41c70cd892ae63c91878c4f20e82f97c2d9bef86cb22748160008054905060405161014d92919061085b565b60405180910390a150565b60008080549050905090565b606060008080549050116101ad576040517f08c379a00000000000000000000000000000000000000000000000000000000081526004016101a4906108d7565b60405180910390fd5b6000808054905042446040516020016101c7929190610918565b6040516020818303038152906040528051906020012060001c6101ea9190610973565b905060008181548110610200576101ff6109a4565b5b906000526020600020018054610215906105ac565b80601f0160208091040260200160405190810160405280929190818152602001828054610241906105ac565b801561028e5780601f106102635761010080835404028352916020019161028e565b820191906000526020600020905b81548152906001019060200180831161027157829003601f168201915b505050505091505090565b6000604051905090565b600080fd5b600080fd5b600080fd5b600080fd5b6000601f19601f8301169050919050565b7f4e487b7100000000000000000000000000000000000000000000000000000000600052604160045260246000fd5b610300826102b7565b810181811067ffffffffffffffff8211171561031f5761031e6102c8565b5b80604052505050565b6000610332610299565b905061033e82826102f7565b919050565b600067ffffffffffffffff82111561035e5761035d6102c8565b5b610367826102b7565b9050602081019050919050565b82818337600083830152505050565b600061039661039184610343565b610328565b9050828152602081018484840111156103b2576103b16102b2565b5b6103bd848285610374565b509392505050565b600082601f8301126103da576103d96102ad565b5b81356103ea848260208601610383565b91505092915050565b600060208284031215610409576104086102a3565b5b600082013567ffffffffffffffff811115610427576104266102a8565b5b610433848285016103c5565b91505092915050565b6000819050919050565b61044f8161043c565b82525050565b600060208201905061046a6000830184610446565b92915050565b600081519050919050565b600082825260208201905092915050565b60005b838110156104aa57808201518184015260208101905061048f565b60008484015250505050565b60006104c182610470565b6104cb818561047b565b93506104db81856020860161048c565b6104e4816102b7565b840191505092915050565b6000602082019050818103600083015261050981846104b6565b905092915050565b7f4e616d652063616e6e6f7420626520656d707479000000000000000000000000600082015250565b600061054760148361047b565b915061055282610511565b602082019050919050565b600060208201905081810360008301526105768161053a565b9050919050565b7f4e487b7100000000000000000000000000000000000000000000000000000000600052602260045260246000fd5b600060028204905060018216806105c457607f821691505b6020821081036105d7576105d661057d565b5b50919050565b60008190508160005260206000209050919050565b60006020601f8301049050919050565b600082821b905092915050565b60006008830261063f7fffffffffffffffffffffffffffffffffffffffffffffffffffffffffffffffff82610602565b6106498683610602565b95508019841693508086168417925050509392505050565b6000819050919050565b600061068661068161067c8461043c565b610661565b61043c565b9050919050565b6000819050919050565b6106a08361066b565b6106b46106ac8261068d565b84845461060f565b825550505050565b600090565b6106c96106bc565b6106d4818484610697565b505050565b5b818110156106f8576106ed6000826106c1565b6001810190506106da565b5050565b601f82111561073d5761070e816105dd565b610717846105f2565b81016020851015610726578190505b61073a610732856105f2565b8301826106d9565b50505b505050565b600082821c905092915050565b600061076060001984600802610742565b1980831691505092915050565b6000610779838361074f565b9150826002028217905092915050565b61079282610470565b67ffffffffffffffff8111156107ab576107aa6102c8565b5b6107b582546105ac565b6107c08282856106fc565b600060209050601f8311600181146107f357600084156107e1578287015190505b6107eb858261076d565b865550610853565b601f198416610801866105dd565b60005b8281101561082957848901518255600182019150602085019450602081019050610804565b868310156108465784890151610842601f89168261074f565b8355505b6001600288020188555050505b505050505050565b6000604082019050818103600083015261087581856104b6565b90506108846020830184610446565b9392505050565b7f4e6f206e616d657320617661696c61626c650000000000000000000000000000600082015250565b60006108c160128361047b565b91506108cc8261088b565b602082019050919050565b600060208201905081810360008301526108f0816108b4565b9050919050565b6000819050919050565b61091261090d8261043c565b6108f7565b82525050565b60006109248285610901565b6020820191506109348284610901565b6020820191508190509392505050565b7f4e487b7100000000000000000000000000000000000000000000000000000000600052601260045260246000fd5b600061097e8261043c565b91506109898361043c565b92508261099957610998610944565b5b828206905092915050565b7f4e487b7100000000000000000000000000000000000000000000000000000000600052603260045260246000fdfea264697066735822122040149390b139fd1fedc0abe47e3b4b5834c845f9696fcb104ea7e9a84a4f032864736f6c63430008140033",
  "linkReferences": {},
  "deployedLinkReferences": {}
}