{
  "contractName": "Messenger",
  "abi": [
    {
      "inputs": [],
      "name": "myBool",
      "outputs": [
        {
          "internalType": "bool",
          "name": "",
          "type": "bool"
        }
      ],
      "stateMutability": "view",
      "type": "function"
    },
    {
      "inputs": [
        {
          "internalType": "bool",
          "name": "newBool",
          "type": "bool"
        }
      ],
      "name": "setMyBool",
      "outputs": [],
      "stateMutability": "nonpayable",
      "type": "function"
    }
  ],
  "bytecode": "0x608060405234801561000f575f80fd5b5061015f8061001d5f395ff3fe608060405234801561000f575f80fd5b5060043610610034575f3560e01c80636deecdbe14610038578063eb1b30d914610056575b5f80fd5b610040610072565b60405161004d91906100b7565b60405180910390f35b610070600480360381019061006b91906100fe565b610082565b005b5f8054906101000a900460ff1681565b805f806101000a81548160ff02191690831515021790555050565b5f8115159050919050565b6100b18161009d565b82525050565b5f6020820190506100ca5f8301846100a8565b92915050565b5f80fd5b6100dd8161009d565b81146100e7575f80fd5b50565b5f813590506100f8816100d4565b92915050565b5f60208284031215610113576101126100d0565b5b5f610120848285016100ea565b9150509291505056fea26469706673582212204229218589e05655f4945b610fa856a9052cee9a65c6bd68bf2daed87981edc064736f6c63430008150033",
  "immutableReferences": {},
  "source": "// SPDX-License-Identifier: UNLICENSED\r\npragma solidity ^0.8.0;\r\n\r\ncontract Messenger {\r\n    bool public myBool;\r\n\r\n    function setMyBool(bool newBool) public {\r\n        myBool = newBool;\r\n    }\r\n}\r\n",
  "sourcePath": "C:\\Users\\joank\\Desktop\\Playground\\Solidity playground\\contracts\\Messenger.sol",
  "compiler": {
    "name": "solc",
    "version": "0.8.21+commit.d9974bed.Emscripten.clang"
  },
  "schemaVersion": "3.4.16",
  "updatedAt": "2023-11-30T07:08:02.205Z",
  "devdoc": {
    "kind": "dev",
    "methods": {},
    "version": 1
  },
  "userdoc": {
    "kind": "user",
    "methods": {},
    "version": 1
  }
}